:020000040000FA
:0400000000001028C4
:08000800FD000308FE000A08D8
:10001000FF007F088A007E088300FD0E7D0E090028
:1000200073201320122824102414241C08002108F3
:10003000A200A203A301A30A3A28200823078400F0
:100040000008A50020082307840084030008A502F7
:10005000A51F342820082307A60020082307A7008F
:10006000A7034F20A30A1C28A30AA20B1C28382888
:10007000241015282108AA002308AA022A181D28DE
:10008000AA181D282A191D28AA191D282A1A1D2850
:10009000AA1A1D282A1B1D28AA1B1D281528260858
:1000A00084000008A800270884000008A900280888
:1000B0008000260884002908800008000130C00064
:1000C0001730C1002A30C2000030C3004D30C400D8
:1000D0002730C5007830C6007F30C7004030A00010
:1000E0000830A10008000130C0001730C1002A30DC
:1000F000C2000030C3004630C4002730C50078304D
:10010000C6007F30C7000F30C8005D30C9000E3018
:10011000CA004630CB005530CC000F30CD00203027
:10012000CE007830CF004030A0001030A100080091
:0E0130002030C0004030A0000130A1000800C7
:02400E003A3F37
:00000001FF
