:020000040000FA
:0400000000001028C4
:040004000034003490
:08000800FD000308FE000A08D8
:10001000FF007F088A007E088300FD0E7D0E090028
:100020005120132012282008A5002508840000086C
:10003000A200A300A400210B1E280800A50A2B2063
:10004000250884000008A407200821072502031CB6
:100050001E283B20080025088400000823020318FE
:1000600034280008A300080000082202031C08002E
:100070000008A200080008000130C0001730C100CD
:100080002A30C2000030C3004D30C4002730C50004
:100090007E30C6007F30C7004030A0000830A1008D
:1000A00008000130C0001730C1002A30C200003003
:1000B000C3004630C4002730C5007830C6007F300A
:1000C000C7000F30C8005D30C9000E30CA0046308E
:1000D000CB005530CC000F30CD002030CE00783032
:1000E000CF004030A0001030A10008002030C00038
:0A00F0004030A0000130A10008001C
:02400E003A3F37
:00000001FF
